{
  "_format": "hh-sol-artifact-1",
  "contractName": "VotingContract",
  "sourceName": "contracts/VotingContract.sol",
  "abi": [
    {
      "inputs": [],
      "stateMutability": "nonpayable",
      "type": "constructor"
    },
    {
      "inputs": [],
      "name": "getVoters",
      "outputs": [
        {
          "components": [
            {
              "internalType": "string",
              "name": "name",
              "type": "string"
            },
            {
              "internalType": "uint64",
              "name": "voterID",
              "type": "uint64"
            },
            {
              "internalType": "uint256",
              "name": "timestamp",
              "type": "uint256"
            },
            {
              "internalType": "string",
              "name": "partyName",
              "type": "string"
            }
          ],
          "internalType": "struct VotingContract.Voter[]",
          "name": "",
          "type": "tuple[]"
        }
      ],
      "stateMutability": "view",
      "type": "function"
    },
    {
      "inputs": [
        {
          "internalType": "string",
          "name": "name",
          "type": "string"
        },
        {
          "internalType": "uint64",
          "name": "voterID",
          "type": "uint64"
        },
        {
          "internalType": "string",
          "name": "partyName",
          "type": "string"
        }
      ],
      "name": "registerVoter",
      "outputs": [],
      "stateMutability": "payable",
      "type": "function"
    }
  ],
  "bytecode": "0x608060405234801561001057600080fd5b5033600160006101000a81548173ffffffffffffffffffffffffffffffffffffffff021916908373ffffffffffffffffffffffffffffffffffffffff160217905550610c89806100616000396000f3fe6080604052600436106100295760003560e01c80630e610d6c1461002e578063cdd722531461004a575b600080fd5b610048600480360381019061004391906105d2565b610075565b005b34801561005657600080fd5b5061005f6101e8565b60405161006c9190610830565b60405180910390f35b61007e826103a7565b6100bd576040517f08c379a00000000000000000000000000000000000000000000000000000000081526004016100b4906108af565b60405180910390fd5b600160009054906101000a900473ffffffffffffffffffffffffffffffffffffffff1673ffffffffffffffffffffffffffffffffffffffff166108fc349081150290604051600060405180830381858888f19350505050158015610125573d6000803e3d6000fd5b50600060405180608001604052808581526020018467ffffffffffffffff16815260200142815260200183815250908060018154018082558091505060019003906000526020600020906004020160009091909190915060008201518160000190816101919190610adb565b5060208201518160010160006101000a81548167ffffffffffffffff021916908367ffffffffffffffff1602179055506040820151816002015560608201518160030190816101e09190610adb565b505050505050565b60606000805480602002602001604051908101604052809291908181526020016000905b8282101561039e578382906000526020600020906004020160405180608001604052908160008201805461023f906108fe565b80601f016020809104026020016040519081016040528092919081815260200182805461026b906108fe565b80156102b85780601f1061028d576101008083540402835291602001916102b8565b820191906000526020600020905b81548152906001019060200180831161029b57829003601f168201915b505050505081526020016001820160009054906101000a900467ffffffffffffffff1667ffffffffffffffff1667ffffffffffffffff1681526020016002820154815260200160038201805461030d906108fe565b80601f0160208091040260200160405190810160405280929190818152602001828054610339906108fe565b80156103865780601f1061035b57610100808354040283529160200191610386565b820191906000526020600020905b81548152906001019060200180831161036957829003601f168201915b5050505050815250508152602001906001019061020c565b50505050905090565b600080600090505b60008054905081101561042d578267ffffffffffffffff16600082815481106103db576103da610bad565b5b906000526020600020906004020160010160009054906101000a900467ffffffffffffffff1667ffffffffffffffff160361041a576000915050610433565b808061042590610c0b565b9150506103af565b50600190505b919050565b6000604051905090565b600080fd5b600080fd5b600080fd5b600080fd5b6000601f19601f8301169050919050565b7f4e487b7100000000000000000000000000000000000000000000000000000000600052604160045260246000fd5b61049f82610456565b810181811067ffffffffffffffff821117156104be576104bd610467565b5b80604052505050565b60006104d1610438565b90506104dd8282610496565b919050565b600067ffffffffffffffff8211156104fd576104fc610467565b5b61050682610456565b9050602081019050919050565b82818337600083830152505050565b6000610535610530846104e2565b6104c7565b90508281526020810184848401111561055157610550610451565b5b61055c848285610513565b509392505050565b600082601f8301126105795761057861044c565b5b8135610589848260208601610522565b91505092915050565b600067ffffffffffffffff82169050919050565b6105af81610592565b81146105ba57600080fd5b50565b6000813590506105cc816105a6565b92915050565b6000806000606084860312156105eb576105ea610442565b5b600084013567ffffffffffffffff81111561060957610608610447565b5b61061586828701610564565b9350506020610626868287016105bd565b925050604084013567ffffffffffffffff81111561064757610646610447565b5b61065386828701610564565b9150509250925092565b600081519050919050565b600082825260208201905092915050565b6000819050602082019050919050565b600081519050919050565b600082825260208201905092915050565b60005b838110156106c35780820151818401526020810190506106a8565b60008484015250505050565b60006106da82610689565b6106e48185610694565b93506106f48185602086016106a5565b6106fd81610456565b840191505092915050565b61071181610592565b82525050565b6000819050919050565b61072a81610717565b82525050565b6000608083016000830151848203600086015261074d82826106cf565b91505060208301516107626020860182610708565b5060408301516107756040860182610721565b506060830151848203606086015261078d82826106cf565b9150508091505092915050565b60006107a68383610730565b905092915050565b6000602082019050919050565b60006107c68261065d565b6107d08185610668565b9350836020820285016107e285610679565b8060005b8581101561081e57848403895281516107ff858261079a565b945061080a836107ae565b925060208a019950506001810190506107e6565b50829750879550505050505092915050565b6000602082019050818103600083015261084a81846107bb565b905092915050565b600082825260208201905092915050565b7f564f54455220494420616c726561647920726567697374657265640000000000600082015250565b6000610899601b83610852565b91506108a482610863565b602082019050919050565b600060208201905081810360008301526108c88161088c565b9050919050565b7f4e487b7100000000000000000000000000000000000000000000000000000000600052602260045260246000fd5b6000600282049050600182168061091657607f821691505b602082108103610929576109286108cf565b5b50919050565b60008190508160005260206000209050919050565b60006020601f8301049050919050565b600082821b905092915050565b6000600883026109917fffffffffffffffffffffffffffffffffffffffffffffffffffffffffffffffff82610954565b61099b8683610954565b95508019841693508086168417925050509392505050565b6000819050919050565b60006109d86109d36109ce84610717565b6109b3565b610717565b9050919050565b6000819050919050565b6109f2836109bd565b610a066109fe826109df565b848454610961565b825550505050565b600090565b610a1b610a0e565b610a268184846109e9565b505050565b5b81811015610a4a57610a3f600082610a13565b600181019050610a2c565b5050565b601f821115610a8f57610a608161092f565b610a6984610944565b81016020851015610a78578190505b610a8c610a8485610944565b830182610a2b565b50505b505050565b600082821c905092915050565b6000610ab260001984600802610a94565b1980831691505092915050565b6000610acb8383610aa1565b9150826002028217905092915050565b610ae482610689565b67ffffffffffffffff811115610afd57610afc610467565b5b610b0782546108fe565b610b12828285610a4e565b600060209050601f831160018114610b455760008415610b33578287015190505b610b3d8582610abf565b865550610ba5565b601f198416610b538661092f565b60005b82811015610b7b57848901518255600182019150602085019450602081019050610b56565b86831015610b985784890151610b94601f891682610aa1565b8355505b6001600288020188555050505b505050505050565b7f4e487b7100000000000000000000000000000000000000000000000000000000600052603260045260246000fd5b7f4e487b7100000000000000000000000000000000000000000000000000000000600052601160045260246000fd5b6000610c1682610717565b91507fffffffffffffffffffffffffffffffffffffffffffffffffffffffffffffffff8203610c4857610c47610bdc565b5b60018201905091905056fea2646970667358221220af3f85597e5e064efce9cff27dfb6c1134b94f30f467aa237c30bbf8c161c86e64736f6c63430008110033",
  "linkReferences": {},
  "deployedLinkReferences": {}
}